{
  "contractName": "HelloWorld",
  "abi": [
    {
      "constant": true,
      "inputs": [],
      "name": "creator",
      "outputs": [
        {
          "name": "",
          "type": "address"
        }
      ],
      "payable": false,
      "stateMutability": "view",
      "type": "function"
    },
    {
      "constant": true,
      "inputs": [],
      "name": "myNumber",
      "outputs": [
        {
          "name": "",
          "type": "uint256"
        }
      ],
      "payable": false,
      "stateMutability": "view",
      "type": "function"
    },
    {
      "constant": true,
      "inputs": [],
      "name": "message",
      "outputs": [
        {
          "name": "",
          "type": "string"
        }
      ],
      "payable": false,
      "stateMutability": "view",
      "type": "function"
    },
    {
      "inputs": [],
      "payable": false,
      "stateMutability": "nonpayable",
      "type": "constructor"
    }
  ],
  "bytecode": "0x6060604052341561000f57600080fd5b336000806101000a81548173ffffffffffffffffffffffffffffffffffffffff021916908373ffffffffffffffffffffffffffffffffffffffff1602179055506040805190810160405280600c81526020017f48656c6c6f2c20776f726c6400000000000000000000000000000000000000008152506002908051906020019061009a9291906100a8565b50600560018190555061014d565b828054600181600116156101000203166002900490600052602060002090601f016020900481019282601f106100e957805160ff1916838001178555610117565b82800160010185558215610117579182015b828111156101165782518255916020019190600101906100fb565b5b5090506101249190610128565b5090565b61014a91905b8082111561014657600081600090555060010161012e565b5090565b90565b61025d8061015c6000396000f300606060405260043610610057576000357c0100000000000000000000000000000000000000000000000000000000900463ffffffff16806302d05d3f1461005c57806323fd0e40146100b1578063e21f37ce146100da575b600080fd5b341561006757600080fd5b61006f610168565b604051808273ffffffffffffffffffffffffffffffffffffffff1673ffffffffffffffffffffffffffffffffffffffff16815260200191505060405180910390f35b34156100bc57600080fd5b6100c461018d565b6040518082815260200191505060405180910390f35b34156100e557600080fd5b6100ed610193565b6040518080602001828103825283818151815260200191508051906020019080838360005b8381101561012d578082015181840152602081019050610112565b50505050905090810190601f16801561015a5780820380516001836020036101000a031916815260200191505b509250505060405180910390f35b6000809054906101000a900473ffffffffffffffffffffffffffffffffffffffff1681565b60015481565b60028054600181600116156101000203166002900480601f0160208091040260200160405190810160405280929190818152602001828054600181600116156101000203166002900480156102295780601f106101fe57610100808354040283529160200191610229565b820191906000526020600020905b81548152906001019060200180831161020c57829003601f168201915b5050505050815600a165627a7a72305820be28a18aa154f2b1beb4b94223a2d90a02f29a9ec49b06046570477298fad6ec0029",
  "source": "pragma solidity ^0.4.0;\ncontract HelloWorld {\n    address public creator; // data-type 'address'\n    uint public myNumber; // data-type 'unit'\n    string public message; // data-type 'string'\n\n    // constructor - runs once on contract creation transaction\n    function HelloWorld() {\n        creator = msg.sender; // set 'creator' variable to address of transaction sender\n        message = 'Hello, world'; // set our message\n        myNumber = 5; // also set a number\n    }\n}\n",
  "sourcePath": "/home/yourself/Dapp-projects/hello-world/contracts/HelloWorld.sol",
  "compiler": {
    "name": "solc",
    "version": "0.4.21+commit.dfe3193c.Emscripten.clang"
  },
  "schemaVersion": "2.0.0",
  "updatedAt": "2018-04-16T11:40:30.465Z"
}